:100000000C9485060C94A2060C94A2060C94AA2DBE
:100010000C94A2060C94A2060C94A2060C94A206C0
:100020000C94A2060C94A2060C9462180C941E1850
:100030000C9442240C94A2060C94A2060C94A206E2
:100040000C94A2060C94A2060C94A2060C94A20690
:100050000C94A2060C9449190C94A2060C94A206C6
:100060000C94A2060C94A2060C94A2060C94A20670
:100070000C94A2060C94A2060C94A2060C94A20660
:100080000C94A2060C94A2060C94A2060C94A20650
:100090000C94A2060C94A2060C94A2060C94A20640
:1000A0000C94A2060C94A2060C94A20605010980E9
:1000B000A101850319012AB700150126B700950192
:1000C00075108100C0050C0901A101850419012AE0
:1000D000A002150126A002950175108100C005013E
:1000E0000906A1018506050719E029E71500250184
:1000F0009508750181020507190029EF15002501F2
:1001000095F075018102050819012905950575010C
:100110009102950175039101C00660FF0961A1017B
:100120000962150026FF00952075088102096315F4
:100130000026FF00952075089102C005010906A15F
:1001400001050719E029E7150025019508750181CA
:10015000029501750881010507190029FF15002680
:10016000FF0095067508810005081901290515008D
:100170002501950575019102950175039101C00056
:10018000000000000000000000000000000000006F
:10019000000000000000000000000000000000005F
:1001A0000000007E0F00D4FFFFFFC70000007800B2
:1001B000000000000000002A2B28000000000000C2
:1001C0000000000000000000000029000000002CDA
:1001D0001E3420212224342627252E362D37382779
:1001E0001E1F202122232425263333362E37381F85
:1001F0000405060708090A0B0C0D0E0F1011121347
:100200001415161718191A1B1C1D2F3130232D35E4
:100210000405060708090A0B0C0D0E0F1011121326
:100220001415161718191A1B1C1D2F3130354C20A8
:100230002020206162636465666768696A6B6C6D23
:100240006E6F707172737475767778797A31323334
:1002500034353637383930524542545F2D3D5B5D79
:100260005C233B27602C2E2F20202000DA0281FF08
:10027000D9F1DB20A4A62EAF00A0C0D30000A1C8F6
:10028000D30000AED580A81F408D14200000575029
:100290004D0000004B455900003F3F3F005359536C
:1002A0000053594D004E554D00424153450000202A
:1002B00020207633000000040C18F0380CE62222CF
:1002C000020101818181818181010101010101021C
:1002D00002020202028444242868D890302040C0E0
:1002E000000000000000000000F01C040602028272
:1002F000C2424222222222A2A2A2B29292929292BE
:1003000092B2A2A2A2A3A1A3BE8A8A9A9EBBA9A9C5
:1003100029000080808080808080404040404020D4
:1003200020202010101010100808081010F01808D5
:100330000C041CE00000030204F807001E3360C038
:10034000801F312020202464414163263C000000AE
:10035000000000847F29283810000001031C38C0E9
:10036000030E38A0404020380F01000000000001BB
:100370000101010101010100000000000000000076
:100380000000000000000000000000000000001F4E
:10039000E2030101000000000000C0C06020202036
:1003A00030101010101018080C0602020201030E83
:1003B0001830203F0000828281FF0000000080F0A2
:1003C0001C0400F01808080828280808907000008D
:1003D0000000000FF0505070200000000000F80FE7
:1003E0000000C03F10103060C0000000000000009E
:1003F00000000000000000008080808080808080FD
:10040000808080808000000000000000000080806C
:10041000FF808080808080000000000103020604CD
:10042000040408080808080808080808E83008084C
:100430000808F8000000000000711F0C0838303375
:10044000262C282121212122222321212020202085
:10045000202020222D282828282828282434131852
:100460000C07010000000000030E081010103020DF
:100470002121434343434745858484848484848481
:10048000848C888888898999F15151517969E9A8C2
:10049000A8A80800000001010101010302020202F4
:1004A000020202020202020101010101010306042B
:1004B0000C18131E000001010101010101010102DC
:1004C0000202020202020202030303030303030304
:1004D00004040404040404050505050506060606CF
:1004E00006070707070708080808090909090A0A8B
:1004F0000A0B0B0B0C0C0C0D0D0D0E0E0E0F0F0F2F
:1005000010101111111212131314141515161617B9
:1005100017181819191A1A1B1B1C1D1D1E1E1F2027
:1005200020212222232424252626272829292A2B74
:100530002C2D2D2E2F303132323334353637383999
:100540003A3B3C3D3E3F4041424344454647484993
:100550004A4C4D4E4F50515354555658595A5B5D65
:100560005E5F616264656668696B6C6D6F70727303
:100570007577787A7B7D7E8082838587888A8C8E6A
:100580008F91939596989A9C9EA0A2A3A5A7A9AB9C
:10059000ADAFB1B3B5B7BABCBEC0C2C4C6C9CBCD8E
:1005A000CFD1D4D6D8DBDDDFE2E4E7E9EBEEF0F340
:1005B000F5F8FAFDFF0000000000003E5B4F5B3ED7
:1005C000003E6B4F6B3E001C3E7C3E1C00183C7E88
:1005D0003C18001C577D571C001C5E7F5E1C0000F1
:1005E000183C180000FFE7C3E7FF000018241800BC
:1005F00000FFE7DBE7FF0030483A060E00262979C6
:10060000292600407F05050700407F05253F005A49
:100610003CE73C5A007F3E1C1C0800081C1C3E7F27
:100620000014227F2214005F5F005F5F0006097FD5
:10063000017F00006689956A0060606060600094D8
:10064000A2FFA2940008047E04080010207E20105F
:100650000008082A1C0800081C2A0808001E1010A0
:100660001010000C1E0C1E0C0030383E38300006F6
:100670000E3E0E060000000000000000005F0000BB
:1006800000000700070000147F147F1400242A7F55
:100690002A120023130864620036495620500000D5
:1006A0000807030000001C224100000041221C003A
:1006B000002A1C7F1C2A0008083E080800008070E1
:1006C00030000008080808080000006060000020F2
:1006D00010080402003E5149453E0000427F4000A0
:1006E000007249494946002141494D33001814120E
:1006F0007F10002745454539003C4A4949310041B2
:100700002111090700364949493600464949291E41
:100710000000001400000000403400000000081435
:100720002241001414141414000041221408000281
:1007300001590906003E415D594E007C1211127CA0
:10074000007F49494936003E41414122007F4141F5
:10075000413E007F49494941007F09090901003EA6
:1007600041415173007F0808087F0000417F41002C
:10077000002040413F01007F08142241007F40409B
:100780004040007F021C027F007F0408107F003E73
:100790004141413E007F09090906003E4151215E69
:1007A000007F091929460026494949320003017F83
:1007B0000103003F4040403F001F2040201F003FFA
:1007C0004038403F006314081463000304780403B6
:1007D000006159494D4300007F4141410002040836
:1007E000102000004141417F00040201020400404A
:1007F0004040404000000307080000205454784067
:10080000007F284444380038444444280038444495
:10081000287F0038545454180000087E090200183C
:1008200024241C78007F080404780000447D4000E4
:10083000002040403D00007F102844000000417F20
:100840004000007C04780478007C080404780038B8
:1008500044444438007C1824241800182424187CAC
:10086000007C080404080048545454240004043F45
:100870004424003C4040207C001C2040201C003CC4
:100880004030403C004428102844004C9090907C1C
:10089000004464544C4400000836410000000077D6
:1008A0000000000041360800000201020402003C82
:1008B0002623263C0000000000000000000000008D
:1008C0000000000000C0E0F0F8F81800C0F0FCFEE6
:1008D000FFFFFFFFFFFFFF7E0000000000000000A1
:1008E0000080C0E0E0E0E0E0E0E0E0C08000000088
:1008F0000080C0E0E0E0E0E0E0E0E0C08000000078
:10090000E0E0C0C0E0E0E0E00000E0E0C0C0E0E027
:10091000E0E0E0C0800000000080C0E0E0E0E0E057
:10092000E0E0E0C0800000000000000000000000E7
:10093000000000E0F0F0F0E0ECEEF7F37020007C57
:100940007C7C7E007E7E7E7F7F7F000080C0E07E9C
:100950005B4F5BFEC00000C000DCD7DEDEDED7DC14
:1009600000C00000000000000000000000000000C7
:100970000000000000000000000000000000F8FC83
:10098000FEFFE000FFFFFFFFFFFF80FFFFFFFFFF15
:10099000FFFFFFFF1F070100000000000000000034
:1009A000FFFFFF8100000000000081C3C3C30000FF
:1009B000FFFFFF8100000000000081FFFFFF00003B
:1009C000FFFFFF01000000000000FFFFFF0100002B
:1009D000000001FFFFFF0000FFFFFF9D1C1C1C1C0F
:1009E0001C1C9DDFDFDF0000000000000000000095
:1009F0000000000F1F3F7F7F7F7F7F3F1E0C001F87
:100A00001F1F3F003F3F3F7F7F7F00307B7F78305D
:100A1000202030787F3B0003000F7F0F0F0F7F0FE8
:100A200000030000000000000000000000000000C3
:100A30000000000000000000000000000000030FA4
:100A40001F3F3F3F3F1F1F3F3F7F7F7F3F3F1F3F76
:100A50007F7F7F7F7C7878381C0F000000000000CB
:100A60000001030707070707070707030100000046
:100A70000001030707070707070707030100000036
:100A8000070707000000000000000707070000003C
:100A9000000000070707000000010307070707071A
:100AA000070707030100000000000000000000002D
:100AB0000000000000000000000000000000000036
:100AC0000000000000000000000000000000000026
:100AD0000000000000000000000000000000000016
:100AE0000000000000000000000000000000000006
:100AF000000000000000AF00AE2B0014001A000838
:100B00000015001700E00004001600070009000AA5
:100B100000E1001D001B0006001900050000000098
:100B2000000000E300777C2C002A00130012000C68
:100B30000018001C00340033000F000E000D000BE5
:100B400000290038003700360010001100000000B6
:100B5000000000E600787C28002B001E001F00200B
:100B60000021002200E00000000000000000000062
:100B700000E1000000000000000000000000000094
:100B8000000000E30001002C002A002700260025B9
:100B90000024002300000000004F005200510050CC
:100BA0000000000000000000000000000000000045
:100BB000000000E600010028002B001E021F02209A
:100BC0000221022202E000000000000000000000FC
:100BD00000E1000000000000000000000000000034
:100BE000000000E30001002C002A00270226022555
:100BF00002240223023500310030002F002E002D88
:100C0000003502310230022F022E022D02000000B8
:100C1000000000E60001002800007C000000000049
:100C20000000000000207823782578277800000055
:100C30000021782478267828780000000000000041
:100C4000000000E30001002C000000000000000094
:100C50000000000000000000000000000000000094
:100C60000000000000000000000000000000000084
:100C7000000000E6000100280009025B00030100FB
:100C8000A0FA09040000010301010009211101007B
:100C90000122440007058103080001090401000244
:100CA0000300000009211101000122220007058232
:100CB00003200001070503032000010904020001CD
:100CC00003000000092111010001226D00070584C5
:100CD0000320000112010002000000085346010039
:100CE0000100010200010C0343006F0072006E005E
:100CF00065000000100366006F006F007300740051
:100D000061006E0000000403090411241FBECFEF30
:100D1000DAE0DEBFCDBF12E0A0E0B1E0EAE3F6E644
:100D200002C005900D92A839B107D9F726E0A8E9CD
:100D3000B2E001C01D92A83FB207E1F70E9469240A
:100D40000C94B1320C940000482F2091F40690913D
:100D5000BB0657E0291302C080E0089530E0529F9F
:100D6000F001539FF00D1124E454F94F8181681371
:100D700006C08081481303C085818111EECF2F5FAB
:100D80003F4F2770E7CFFC01AC014C5F5F4F8FEF07
:100D900091E32191822728E030E087FF09C0880F86
:100DA000892721503109C9F7E417F50791F708950C
:100DB000880FF7CFE8EDF0E080818E7F808310927E
:100DC000E2001092DA001092E100A0EEB0E08C9107
:100DD00081608C9380818F77808319BCA7EDB0E010
:100DE0008C918E7F8C9380818F7E80831092A6065B
:100DF00008952091E4003091E50095E6A901209145
:100E0000EC00822F817020FF06C08091E80080FFF7
:100E100006C080E008952091E80022FD1AC080916C
:100E2000B106882389F0853089F08091EB0085FD3B
:100E30000FC02091E4003091E50042175307F9F20A
:100E40009150E1F684E0089582E0089583E00895EA
:100E500081E008958091B30687FF13C08091E80078
:100E600082FF06C08091E8008B778093E80004C081
:100E70008091B1068111F2CF08958091B106882347
:100E8000D9F38091E80080FFF8CF8091E8008E7759
:100E9000ECCF982F9093E900242F762F50E08917FC
:100EA00031F07091EC002091ED005091F00021FDA7
:100EB00007C09F5F973071F78093E90081E0089544
:100EC0003091EB003E7F3093EB003091ED003D7FA1
:100ED0003093ED003091EB0031603093EB00709374
:100EE000EC002093ED005093F0002091EE0027FDE0
:100EF000E0CF80E00895B0E0A0E0E1E8F7E00C94F6
:100F0000E42EC8EDD0E088818F7E8883E7EDF0E0A5
:100F100080818160808384E082BF81E08093A60627
:100F200088818E7F888302EE10E0F8011082109293
:100F3000DA0081EEC82ED12CF601108288818F77DD
:100F4000888388818068888388818F7D888319BCA5
:100F50001092B1061092B2061092B0061092AF062F
:100F600090EEE92EF12CF70180818B7F80838881C0
:100F70008160888342E060E080E00E944907F601DA
:100F800080818E7F8083F801808181608083808171
:100F900088608083F70180818E7F80838881806173
:100FA0008883CDB7DEB7E8E00C94002FFC01809178
:100FB000B9069091BA0686179707A0F061157105DA
:100FC00029F49091E8009E779093E80090E06115F5
:100FD000710551F4911108C08091E80082FF34C07E
:100FE00080E00895BC01F2CF8091B1068823C1F161
:100FF0008530C1F18091E80083FD30C08091E80028
:1010000082FDEACF8091E80080FFE1CF8091F3007C
:101010002091F200382F6115710519F02830310543
:1010200058F091E02830310509F090E02091E80077
:101030002E772093E800CBCF81918093F10061500F
:1010400071092F5F3F4FE7CF8091B106882341F0B0
:10105000853041F08091E80083FFBECF81E00895A4
:1010600082E0089583E00895089587E797E79093D5
:1010700001088093000888E19AE00FB6F894A895DB
:10108000809360000FBE90936000FFCFCF92DF92FD
:10109000EF92FF922FB7F894C090A206D090A306CB
:1010A000E090A406F090A5062FBFA7019601261B8D
:1010B000370B480B590BCA01B901FF90EF90DF9035
:1010C000CF9008952FB7F8946091A2067091A3066F
:1010D0008091A4069091A5062FBF089580914B01A1
:1010E000089590914C019130D1F490919F0697FF13
:1010F00016C0E82FE695E695E695EE31E0F4F0E0CF
:10110000EE55FD4F282F277081E090E001C0880F39
:101110002A95EAF780959281892382830895ECE9E4
:10112000F2E09191891303C0DF0111971C9292E0C4
:10113000E23AF907B1F7089590914C019130C1F46A
:1011400090919F0697FF14C0E82FE695E695E695E7
:10115000EE31F8F4F0E0EE55FD4F877021E030E01D
:1011600001C0220F8A95EAF78281822B828308953B
:10117000ACE9B2E0EFEF90E02D91821751F0EF3F34
:1011800019F4211101C0E92F9F5F9630A9F7EF3FB5
:1011900009F408950E2E000CFF0BE656FD4FE6CF26
:1011A000A3E0B0E0E6EDF8E00C94EA2E20919D0675
:1011B00030919E0628173907A1F090939E068093E0
:1011C0009D06E0919B06F0919C06309751F024E03B
:1011D00029839B838A830084F185E02DCE010196CB
:1011E00009952396E2E00C94062FA3E0B0E0EBEF24
:1011F000F8E00C94EA2E2091990630919A0628176F
:101200003907A1F090939A0680939906E0919B0686
:10121000F0919C06309751F023E029839B838A83C9
:101220000084F185E02DCE01019609952396E2E038
:101230000C94062F80919706882359F0E0919B0625
:10124000F0919C06309729F00190F081E02D0995EE
:10125000089580E00895FC01EE0FFF1FE80FF91FCD
:10126000EB50FA4F6183408322830895539A089587
:10127000ECEDF3E0248130E1231B08F420E024832B
:101280008091DB0381608093DB030895ECEDF3E054
:10129000248130E1230F08F42FEF24838091DB03B6
:1012A00081608093DB0308959091DC03937071F06B
:1012B0008093DD036093DE03493708F048E74093ED
:1012C000DF038091DB03822B8093DB030895ECED39
:1012D000F3E0438120E1421B08F440E0818121E0FA
:1012E000628190E00E9454090895ECEDF3E043819F
:1012F00020E1420F08F44FEF818121E0628190E00C
:101300000E9454090895ECEDF3E0628120E1621B34
:1013100008F460E0818121E0438190E00E9454095B
:101320000895ECEDF3E0628120E1620F08F46FEFC5
:10133000818121E0438190E00E9454090895ECED01
:10134000F3E0818121E0438162818850990B0E9402
:1013500054090895ECEDF3E0818190E021E04381B0
:10136000628108960E94540908958091DC0383707D
:1013700051F084608093DC03109249018091DB037B
:10138000862B8093DB0308958091DC0386958695F8
:10139000815009F481E061E00E94B509089561E09F
:1013A00081E00E94B50908958091DC03837011F0FB
:1013B000109249018091DC038C7F8093DC030895B7
:1013C0008091DC03837011F4109249018091DC0359
:1013D0008C7F81608093DC030895ECEDF3E09081D5
:1013E00021E092279083109249019091DB03892B91
:1013F0008093DB0308959BE0899F802D1124980F33
:10140000973308F096E320919806222321F09C312F
:1014100028F09BE108958B3108F48BE10895FF9249
:101420000F931F93CF93DF93182F062FF42ED0E046
:10143000C0E0CE0120919806211103C0CB3108F005
:101440004B972F2D402F612F0E942B092196C633D9
:10145000D10579F7CDB7DEB7E5E00C94032F80E036
:101460000895F894E82FE295EF70F0E031A1282F6D
:101470002F7081E090E001C0880F2A95EAF7982F3D
:101480009095932391A392A1892B82A37894089598
:101490000F931F9380919706882329F00E9462087A
:1014A0001F910F9108950E946208009145031091C9
:1014B00046032091470330914803600F711F821F3C
:1014C000931FEECF90919F0692FF10C041E0282F0E
:1014D0002471243009F040E031E0282F28712830B1
:1014E00009F030E0431711F02CE0822793FF10C081
:1014F00041E0282F2471243109F040E031E0282F09
:101500002871283109F030E0431711F02CE08227D0
:101510003091A00630FF10C051E0282F21712130FA
:1015200009F050E041E0282F2871283009F040E010
:10153000541711F029E0822731FF10C041E0282F15
:101540002171213109F040E031E0282F2871283144
:1015500009F030E0431711F029E0822794FD877EDF
:10156000089582389105B9F1B0F48133910509F4F9
:101570007DC048F48932910509F46DC08A32910525
:1015800009F47BC008958533910509F45FC0893360
:10159000910509F10895833E9105D9F138F4803E13
:1015A000910529F1823E910579F10895863E9105D4
:1015B000D9F1873E910509F43EC0843E910541F57D
:1015C0002091A00621FF24C080919F0684FD19C0B0
:1015D00087EE90E0089520919F06237009F05AC08D
:1015E0002091A00623FF14C089E290E00895209185
:1015F0009F0620FD38C03091A00630FF09C024FFAF
:1016000043C090E080E0089520919F0622FDF7CF2F
:10161000089520919F0622FD3AC03091A00630FD2A
:1016200039C024FFF5CFEDCF20919F0623FFF0CFE7
:1016300024FDE7CFCDCF20919F0623FD2EC0309112
:10164000A00631FFEECF84EE90E0089520919F0632
:1016500025FFDECFC9CF20919F0625FD21C0209117
:10166000A00623FFD5CF89E390E0D2CF20919F063B
:1016700026FFCECF8AE290E0089520919F0626FFB4
:10168000C7CF81E390E0089583EE90E0089582EE65
:1016900090E0089580EE90E0089586EE90E0089541
:1016A00085E390E008951F93CF93DF930E94B10AE2
:1016B000EC01C11580E5D807F0F5C11580E4D80725
:1016C00008F09CC0C03ED10520F5CD3CD10508F006
:1016D00082C0C83AD10578F4C53AD10508F073C084
:1016E000C130D10519F1209709F1C430D105F0F4CA
:1016F000D0E0C0E01BC0C33CD105D0F7C85AD0E051
:10170000CC0FDD1FC459DE4F0990D881C02DD464A1
:101710000DC0C11580E2D80708F0D1C0C11581E025
:10172000D80708F05AC0C83ED10510F7CE01DF91A6
:10173000CF911F910895C03682E5D80718F5C034BF
:1017400082E5D80708F06BC0C03282E5D80708F000
:101750005FC0C11582E5D80708F497C02C2F2695E5
:10176000269580E2289F900111248C2F8370C1E080
:10177000D0E002C0CC0FDD1F8A95E2F7C22BD32B3D
:10178000DD68D4CFC03A82E5D80760F4C03882E57E
:10179000D80708F459C0CF71D0E0DC2FCC27C46F34
:1017A000D06AC4CFC03C82E5D80708F462C0C03E0E
:1017B00082E5D80708F09CCFDC2FCC27CC27DF713F
:1017C000C06FD06AB3CFC55AD0E0C759DE4FC881C9
:1017D000D0E0D064ABCFD065A9CF8D2F0E94620A34
:1017E000182FCE0199270E94B10AC12FD0E0DC2F1B
:1017F000CC27CC27DF71C82BD92B98CFCE019927C6
:101800000E94B10ACC27DF70C82BD92BD06A8ECFAB
:10181000CF71D0E0DC2FCC27C16FD06A87CF2C2FBF
:1018200026952695277080E2289F900111248C2F01
:101830008370C1E0D0E002C0CC0FDD1F8A95E2F7D3
:10184000C22BD32BDC6872CF2C2F269526952770C0
:1018500080E2289F900111248C2F8370C1E0D0E09A
:1018600002C0CC0FDD1F8A95E2F7C22BD32BDA68BA
:101870005DCF8C2F8F710E94620AC82FD0E0DC2FC1
:10188000CC27CC27DF71D06251CF8C2F8F710E9473
:10189000620A55E0D695C7955A95E1F7CF70D0E02A
:1018A000DC2FCC27282F30E084FF05C044E0220F36
:1018B000331F4A95E1F7C22BD32BD06937CF8D2F39
:1018C0008F710E94620A182FCE0199270E94B10AD7
:1018D000C12FD0E0DC2FCC27CC27DF71C82BD92B30
:1018E000D2CF809590910803982390930803089590
:1018F000809108039091DF02892B9091DE02992359
:1019000091F0892B90914C01913071F490919F0648
:1019100097FF0AC09EE124EA32E040E0915040F493
:1019200041111092DE02089596E02CE932E0F5CFE5
:10193000F90151919F01552389F34F5FEFCF8091BA
:10194000F4069091BB06981301C008958F5F8770CD
:10195000FACF292F983078F5863068F590E036E098
:10196000239F800D911D1124682F677023E09695A9
:1019700087952A95E1F7FC01EE0FFF1FE80FF91F8D
:10198000EC53FD4F50E040E080E0219130E0062E26
:1019900002C0369527950A94E2F721703327042E6A
:1019A00001C0220F0A94EAF7822B4F5F5F4F43304A
:1019B000510559F7089580E00895292F983098F53A
:1019C000863088F590E036E0239F800D911D11242C
:1019D000282F277041E001C0440F2A95EAF723E041
:1019E000969587952A95E1F7FC01EE0FFF1FE80F0A
:1019F000F91FEC53FD4F30E020E070E05191DF0122
:101A00001197CB01022E02C0969587950A94E2F7B2
:101A1000817081958527842385278C932F5F3F4F85
:101A20002330310559F708958093A10308959091CB
:101A3000A10321E030E0F90101C0EE0F8A95EAF739
:101A4000D90102C0AA0FBB1F6A95E2F7EA2B01C0B9
:101A5000220F4A95EAF7892F8E23E81305C0292B18
:101A6000822F0E94140D089520952923F9CF21E09B
:101A700030E001C0220F8A95EAF720958091A103FA
:101A800082230E94140D08959091DD028095892390
:101A90008093DD02282F277069F4891759F09091FF
:101AA000A00692FF07C08695869586950E94370D01
:101AB0001092DD02089521E030E001C0220F8A95E6
:101AC000EAF78091A103822B0E94140D0895809360
:101AD00053030895982F92959F7011F0892F94E0E9
:101AE000282F2695269511F09E5F822F869509F066
:101AF0009F5F892F08950F931F93CF93DF938B01DF
:101B0000EA019091B106943061F58093E9008FEF7E
:101B10009091E800815095FD06C095ED9A95F1F7FA
:101B200000008111F5CF8091E80085FF1AC00E9466
:101B3000F906811111C08091E80085FD06C08091F1
:101B4000E8008E778093E800F2CFF80181918F0151
:101B50008093F100219779F78091E8008E77809348
:101B6000E800DF91CF911F910F91089543E050E07D
:101B7000BC0184E00E947B0D089540E250E0BC016E
:101B800084E00E947B0D0895CF93DF93EC0148E041
:101B900050E0BC0181E00E947B0D88E0FE01A7EAD5
:101BA000B6E001900D928A95E1F7DF91CF9108950B
:101BB0003BB1377F2BB128604FB7F89485EF95E0A4
:101BC000FC015191CF0168E02BB9000000C057FF24
:101BD0003BB9550F000000C000C000C03BB900C0B9
:101BE0006A9591F7F6E087399F0751F74FBF8FE568
:101BF00094E00197F1F700C000000895B0E0A0E084
:101C0000E4E0FEE00C94E22E7C015B016A0180912D
:101C1000440301E010E08A3010F40AE010E0C1E073
:101C2000D0E0B501C701F6010995811104C02196E4
:101C30000C171D072CF4CDB7DEB7EAE00C94FE2E8E
:101C4000CC9F9001CD9F300D300D112490E080E0AD
:101C500045E34A95F1F70000019682179307C1F713
:101C6000E0CFCF93C82F6FEF811165E284E290E05F
:101C70000E948D326FEFC11161E085E290E00E9419
:101C80008D326FEFC11166E086E290E00E948D32E6
:101C9000CF910895CF93DF93C8EAD1E060E0CE0101
:101CA0000E948D322196C11584E0D807B9F7DF91E3
:101CB000CF9108951F93CF93DF93122F8430E0F4D8
:101CC0006830D0F44630C0F4C42FD0E0CC0FDD1F14
:101CD0009CE0699FC00DD11D112490E6899FC00D25
:101CE000D11D1124632FCE0188960E948D32612F61
:101CF000CE0189960E948D32DF91CF911F91089578
:101D0000AF92BF92CF92DF92EF92FF921F93CF9349
:101D1000DF9389EFC82E8AE0D82ED0E07601C0E0AC
:101D200014C0F50125913491412F6C2F8D2F0E9405
:101D30005A0E82E0A80EB11C1F5F163091F78CE09E
:101D4000E80EF11CCF5FC83019F0570110E0E9CF61
:101D5000DF5F80E6C80ED11CD43001F7DF91CF9150
:101D60001F91FF90EF90DF90CF90BF90AF900895BC
:101D700080E00E94310E60E087E290E00E948D32A8
:101D80000E94800E0E944A0E81E00E94310E08954A
:101D900084E290E00E946F32853289F485E290E01F
:101DA0000E946F32813059F486E290E00E946F32D7
:101DB00091E0863009F090E0892F8170089580E0ED
:101DC000FCCF0F931F93CF93DF93843030F56830AF
:101DD00020F5463010F5C42FD0E0CC0FDD1F2CE0ED
:101DE000629FC00DD11D112430E6839FC00DD11D0F
:101DF0001124CE0188960E946F32082F10E0102F18
:101E00000027CE0189960E946F329801282BC901C4
:101E1000DF91CF911F910F91089590E080E0F8CF6E
:101E2000462F783040F4663030F4843020F4672F49
:101E30000E94E10E089590E080E00895CF92DF9235
:101E4000FF920F931F93CF93DF936C010091A10337
:101E500080915303082BC3E0D0E010E0FC2EC801B2
:101E60000C2E02C0959587950A94E2F780FD0CC070
:101E70002197A0F7F12C8F2DDF91CF911F910F911A
:101E8000FF90DF90CF900895B6018C2F0E94100F25
:101E90000E94530B019761F3EECFCF93DF93EC01D8
:101EA0000E941E0FBE010E94100F0E94530BDF9173
:101EB000CF910895FC0124812223C1F0808191817A
:101EC0000E944D0F92959F70963091F058F4925F5A
:101ED0009F70923058F4803F19F030F4883E30F40F
:101EE00081E008959A5FF4CF843FD1F380E00895B4
:101EF000883EB0F3813FD1F7F3CFA6E0B0E0E3E84E
:101F0000FFE00C94E92E49835A8349815A81992331
:101F1000A1F0222391F0CA010E941E0F182F682FF2
:101F200089819A810E94DD0C69817A81812F0E94CA
:101F3000100F2696E3E00C94052FCA010E94A90C0D
:101F4000182FF2CF80914C01813059F580919F0676
:101F500087FF27C00E94780C8093A30240E250E0E4
:101F600060EE72E082EA92E00E94AA2F892BC1F013
:101F700080E2E2EAF2E0A0EEB2E001900D928A95F2
:101F8000E1F7E0919B06F0919C06309749F086E0DE
:101F90008093A2020480F581E02D82EA92E0099507
:101FA00008950E94780C80939A0248E050E060E027
:101FB00073E08AE992E00E94AA2F892B89F388E0D6
:101FC000EAE9F2E0A0E0B3E001900D928A95E1F732
:101FD000E0919B06F0919C06309711F30280F3810B
:101FE000E02D8AE992E0DBCF882321F00E94710C7A
:101FF0000E94A20F0895882339F090910803982B2E
:10200000909308030E94A20F0895882339F19CEF52
:10201000980F913A28F40E9471080E94A20F089527
:1020200090E2980F983050F4877091E001C0990FBA
:102030008A95EAF7892F0E94710CEFCF9BE5980FE4
:10204000933028F490E080E00E94F5080895885AC3
:102050008B3120F490E080E00E94D0080895CF9367
:10206000C82F8823B1F18CEF8C0F813AA0F58091B5
:102070004C01813001F580919F0687FF1CC0EC2F39
:10208000E695E695E695F0E0EE55FD4F828190E00D
:102090004C2F477021E030E002C0220F331F4A95D9
:1020A000E2F782239323892B79F08C2F0E94710809
:1020B0000E94A20F09C0ECE9F2E08191C817A9F3D0
:1020C00082E0E23AF807C9F78C2F0E949C080E9430
:1020D000A20FCF91089580E28C0F883068F4C7700A
:1020E00021E030E001C0220FCA95EAF78091080391
:1020F000822B80930803EBCFEBE5EC0FE33040F449
:10210000F0E0E759FE4F808190E00E94F508E1CFB2
:10211000C85ACB31F0F6EC2FF0E0EE0FFF1FE45978
:10212000FE4F808191810E94D008D3CF1F93CF931F
:10213000DF93162F8A3039F481E00E945411DF9129
:10214000CF911F9108958D3011F480E0F6CFC091AA
:10215000ED05D091EE0596E0FE01A7EEB5E0019009
:102160000D929A95E1F7803E90F186E0FE01119282
:102170008A95E9F7C091ED05D091EE05111133C0B4
:1021800046E050E0BE0187EE95E00E94AA2F9E0136
:10219000275E3340892B91F52A5F3F4F4091E4033E
:1021A000642F70E0C9010E94C62E481B463010F40F
:1021B000240F311D211572E0370710F030E020E0C8
:1021C00029513C4F3093EE052093ED05B8CFF6E052
:1021D0008F9FB00111246B547A4F46E050E0CE013E
:1021E0000E94A12FC7CF9E012A5F3F4FFE012E17ED
:1021F0003F0731F2808180958193F9CFC90145E095
:10220000969587954A95E1F741E050E0BA0102C002
:10221000660F771F8A95E2F7CB016091E503709115
:10222000E603862B972BB9016B5F7F4FE5E0769530
:102230006795EA95E1F702C0440F551F6A95E2F7EA
:10224000842B952B9093E6038093E503A5CF1F93F2
:10225000CF93DF93EC01162FFE018491811104C00E
:10226000DF91CF911F910895612F0E9496102196C2
:10227000F3CFFF920F931F93CF93DF93EC01F62ED2
:10228000FC0101900020E9F78F0101501109C017EE
:10229000D10728F0CDB7DEB7E5E00C94032F6F2D02
:1022A00089910E949610F3CFCF93382FE091ED05DE
:1022B000F091EE05E75EF3402091E403622F70E0B9
:1022C000CF010E94C62E281B822F332369F066E0BF
:1022D0000E94112FC82FC15010F4CF91089560E0D3
:1022E00080E20E949610F7CF9F01280F311D211523
:1022F000324018F080E0F0E0E0E08E0F9F2F911D5B
:1023000089519C4F9093EE058093ED05E6CF0E9496
:10231000271181E00E9454110895E7EEF3E080E078
:1023200092E0DF019C011D9221503040E1F7F093D3
:10233000EE05E093ED058FEF9FEF9093E60380931A
:10234000E50308951092080380914C018130C1F497
:1023500080919F0687FF14C0E4EAF2E08EE1DF017E
:102360001D928A95E9F790E080E00E94F50890E0E0
:1023700080E00E94D0081092DF020E94A20F089510
:10238000ECE9F2E086E0EBCFAAE2B0E0EAECF1E1C2
:102390000C94E92E83EB96E02091F100DC012D9363
:1023A000CD01B6E08B3B9B07B9F78091B406833033
:1023B00009F472C0B8F4813009F449C0823009F4DC
:1023C000B7C08091E80083FF3FC18091B306909130
:1023D000B4069A3008F038C1E92FF0E0ED54FD4C16
:1023E0000C94722F8A3009F492C08B3009F471C0BA
:1023F000893039F78091B306813219F78091B70699
:102400009091B806009711F00297D9F68091E800F4
:10241000877F8093E8008091E80082FF38C0909128
:10242000F3008091F200029731F48091F100813045
:1024300011F0863021F48091F10080934B0180915E
:10244000E8008B778093E8000E942A07BACF80913A
:10245000B306813A09F0B5CF8091E800877F809379
:10246000E8008091B7069091B806892B61F468E086
:1024700087EA96E070E00E94D6078091E8008B77AB
:102480008093E8009ECF60E090E080E0F3CF809101
:10249000B1068111C0CF95CF8091B306813A09F082
:1024A00090CF8091B7069091B806892B09F089CF1B
:1024B0008091E800877F8093E8008091E80080FFAA
:1024C000FCCF80914C018093F1008091E8008E77E1
:1024D000B9CF8091B306813209F073CF8091B706EE
:1024E0009091B806892B09F06CCF8091E800877F26
:1024F0008093E8000E942A0781E09091B50691112F
:1025000001C080E080934C010E94A2115ACF8091BB
:10251000B306813209F055CF8091E800877F809320
:10252000E8000E942A078091B60680934A0149CFAD
:102530008091B306813A09F044CF8091E800877F0B
:102540008093E8008091E80080FFFCCF80914A01F1
:10255000BACF803899F0823809F076C08091B706FA
:102560008F70873008F070C08093E9008091EB0095
:1025700085FB882780F91092E90006C08091AF069C
:102580009091B006911182609091E800977F9093AE
:10259000E8008093F1001092F1008091E8008E77BE
:1025A000B8C1882309F4A5C1823009F04DC08091DB
:1025B000B5068111A9C18091B7068F702FEF280F42
:1025C000263008F041C08093E9002091EB0020FF05
:1025D0009BC1933031F48091EB0080628093EB00DB
:1025E00093C19091EB0090619093EB0021E030E07B
:1025F00001C0220F8A95EAF72093EA001092EA00C0
:102600008091EB008860EACF81111EC01091B50661
:102610001F778091E3008078812B8093E300809185
:10262000E800877F8093E8000E942A078091E800F5
:1026300080FFFCCF8091E30080688093E30082E01C
:10264000111183E08093B1068091E80083FF0AC0F6
:102650008091E800877F8093E8008091EB008062A2
:102660008093EB00AA96E3E00C94052F805882300B
:1026700058F72091B5063091B6062C3DE3E03E07B1
:10268000A1F583E08A838AE289834FB7F894DE015B
:10269000139620E03EE051E2E32FF0E05093570024
:1026A000E49120FF03C0E295EF703F5FEF708E2F43
:1026B00090E0EA30C0F0C7968D939D932F5F243150
:1026C00059F74FBF8091E800877F8093E8006AE266
:1026D00070E0CE0101960E94D6078091E8008B77CA
:1026E0008093E800B1CFC096E7CF8091B706909174
:1026F000B806432F55274330510509F44AC078F5F1
:102700004130510509F47AC08BE590E0E9E7FCE03F
:102710004230510509F098CF2091E800277F20939F
:10272000E8002091B9063091BA068217930708F4A1
:102730009C0140E02115310509F065C0411163C0DD
:102740008091E80082FDC9CF8091B106882329F2EB
:10275000853019F28091E80083FFF2CFBECF41327D
:10276000510509F43CC04232510509F06DCF833068
:10277000910508F069CFFC01EE0FFF1FE557FD4FF3
:102780000190F081E02D88579D4FDC018C9190E005
:102790001AC0332721303105D1F02115310561F000
:1027A0002230310509F050CFE6EEFCE0E4918E2FA7
:1027B00090E0E6EEFCE007C0E6E0FDE0E4918E2F5D
:1027C00090E0E6E0FDE0009709F43ECFA5CFE4EF0E
:1027D000FCE0E4918E2F90E0E4EFFCE0F4CF833056
:1027E000910508F031CF880F991FFC01EF56FD4F7E
:1027F0000190F081E02D89E090E08ECF82E190E0C1
:10280000E4EDFCE089CF8091B106882309F465CF1F
:10281000853009F462CF8091E80083FD5ECF80911E
:10282000E80082FD8DCF8091E80080FF83CF9091FA
:10283000F3008091F2002115310519F088309105DF
:1028400050F041E0089709F040E08091E8008E7771
:102850008093E8006FCF44914093F100319621506E
:1028600031090196E8CF803809F0EECE8091E8007A
:10287000877F8093E8008091B2068093F1008DCE2F
:102880008111E2CE1091B506123008F0DDCE8091B4
:10289000E800877F8093E8001093B2060E942A0721
:1028A000112311F084E005C08091E30087FDFACF89
:1028B00081E08093B10642E061EC81E00E9449072B
:1028C00042E261EC84E00E94490742E261EC82E06E
:1028D0000E94490742E260EC83E00E944907809130
:1028E000B106843021F081E080934D01ADCE82E0CD
:1028F000FBCF8091B506813009F0A6CE81E0933000
:1029000009F080E08093B0061092E9008091E80021
:10291000877F8093E8000E942A0796CE0E94A2112A
:102920002FEF84E39CE0215080409040E1F700C00D
:10293000000088E19AE00FB6F894A89580936000B3
:102940000FBE90936000FFCFAB0124E630E0BC01E6
:1029500088E70E947A2C21E0892B09F020E0822F61
:1029600008958091F3059091F405911103C091E0D1
:1029700089270895882369F062E070E087EF9AE084
:102980000E94A414811103C08091F3050895109250
:10299000F3058091F305EBCFCF93C091F3058091C0
:1029A000F4058823D1F00E946208605A75418F4F68
:1029B0009F4F6093EF057093F0058093F10590931E
:1029C000F205C11108C062E070E085EF9AE00E9454
:1029D000A414811105C0C091F3058C2FCF910895E7
:1029E00081E08093F305F7CF48E050E067E170E0C5
:1029F0008CED93E00E947D321092DB030895B0E0ED
:102A0000A0E0E5E0F5E10C94E22E0E94480A609314
:102A1000D3037093D4038093D5039093D60330915E
:102A2000DC03D32FD37019F0D32FD695D6952091F0
:102A300049012130D9F0222359F0223009F411C183
:102A4000233009F418C1CDB7DEB7EAE00C94FE2EAE
:102A5000109246016093D7037093D8038093D903F3
:102A60009093DA0381E080934901EDCF9091450185
:102A700081E0D9130BC0832F83702091440130E093
:102A800091E08217130609F490E0892F81708093FA
:102A900048018091E10390914701981739F08093A4
:102AA000470140E060E080E00E940F0ADD2321F052
:102AB000D13061F090E02AC090914801992331F122
:102AC00040E060E080E00E940F0AF4CF8091460170
:102AD0000E94FB09A82E092FD090DD034091DE0350
:102AE000E091DF03F0E0EB54FB4F411124C0C491AF
:102AF0001C2FFC2EB12C20919806A01608F48FC034
:102B000091E0222309F4A5C00B31A0F68091460183
:102B100021E0280F2093460191119FC092E09093ED
:102B2000490190914801911198C0DD2309F4A1C099
:102B30000E94FB0988CFE42EF12CC491BC2EEC2F0F
:102B4000F0E026E0D29EC00111242FEF30E0B90161
:102B50000E94C62E8D2D90E0880F991F55E5569F37
:102B6000D001579FB00D11248A1B9B0BD82EDD0C72
:102B7000D80ED901AE19BF09AE9FC001AF9F900D0D
:102B8000BE9F900D1124192F4D9DA0011124452F9A
:102B90005527D901A41BB50BAE9FA001AF9F500DC7
:102BA000BE9F500D1124D901AD19B1096D01CE9C04
:102BB000D001CF9CB00DDE9CB00D1124AB2FBB27F4
:102BC0002A1B3B0B2E9FD0012F9FB00D3E9FB00DB7
:102BD0001124FB2E62307105A1F050F461157105CE
:102BE00009F488CF6130710581F0F92E152F82CF5D
:102BF0006430710569F080F06630710509F47ACFB0
:102C0000F4CFC92F1B2FFB2C75CFFC2EC52F72CFF5
:102C1000CB2FF92E1B2D6ECFF52EC92FFBCFF50133
:102C2000D501AE5ABD4F9C9180914701982369F020
:102C3000211105C0BBE1AB16B1040CF07B97212F2D
:102C40004F2D6C2FCF010E942B092FEFA21AB20A31
:102C500052CF063308F45ACF2DCFDD2309F4F3CE3B
:102C600067CFD0934501832F8370809344010E94E6
:102C7000D80D83E0F8CE8091DB0381110E94F4141B
:102C8000C090D703D090D803E090D903F090DA0336
:102C900080919706882369F0C701B6010E94460813
:102CA000603171058105910508F4CDCE109249017E
:102CB000CACE0E94480A6C197D098E099F09F0CF7F
:102CC0009091A00692FB222720F9281779F080FB2B
:102CD00092F99093A00660919F067091A00684E0FF
:102CE00090E00E94AB3282E00E94440D0895B0E073
:102CF000A0E0EDE7F6E10C94E42EC82F7B01D42F81
:102D00006901FB0160817181828193810E94460883
:102D1000643671058105910510F4DD2359F10C2EFF
:102D2000000CDD0BFE0183E0EE0FFF1F8A95E1F73B
:102D3000E050FF4F818192818F5D9C4F408150E038
:102D40000417150708F4A801B6010E94B72FCE0199
:102D50000E94502EC82F882339F00E946208F70184
:102D600060837183828393838C2FCDB7DEB7E8E0D5
:102D70000C94002FC1E0F8CFA1E0B0E0E2ECF6E166
:102D80000C94E82E8091F30589832091370390E01D
:102D900041E02817190609F440E001E010E09E0127
:102DA0002F5F3F4F60E473E085E00E947716219625
:102DB000E4E00C94042FA9E0B0E0E1EEF6E10C941D
:102DC000E82E88E0ECEDF3E0DE01119601900D9223
:102DD0008A95E1F7198649E050E06EE273E0CE0192
:102DE00001960E94AA2F41E0892B09F440E009E0F6
:102DF00010E09E012F5F3F4F6CE373E084E00E9480
:102E000077162996E4E00C94042F0F931F93CF9329
:102E1000DF93EC0144E050E066E273E00E94AA2FE9
:102E200041E0892B09F440E004E010E09E016DE1EF
:102E300073E082E00E947716DF91CF911F910F918E
:102E40000895A4E0B0E0E7E2F7E10C94E92E609188
:102E500038037091390380913A0390913B030E94AB
:102E6000460811E0643671058105910570F10E94F4
:102E7000480A6E5F7F4F8F4F9F4F69837A838B83A2
:102E80009C838091190190911A018F5D9C4F409114
:102E9000180150E04530510510F044E050E0BE010B
:102EA0006F5F7F4F0E94B72F83E090E00E94502E0B
:102EB000182F882351F00E946208609338037093A2
:102EC000390380933A0390933B03812F2496E3E0E8
:102ED0000C94052FEF92FF921F93CF93DF9300D0B6
:102EE00000D00F92CDB7DEB77B0190E080E00E946A
:102EF000502E182F882309F47AC04091030150E026
:102F00004115510511F041E050E0609104017091CC
:102F100005016F5D7C4FCE0105960E94B72F609131
:102F2000190370911A0380911B0390911C030E9456
:102F30004608643671058105910540F482E293E00C
:102F40000E94C3069D81891709F451C081E090E079
:102F50000E94502E81111AC010E0809115039091AB
:102F60001603A0911703B0911803F7018083918392
:102F7000A283B383812F0F900F900F900F900F902B
:102F8000DF91CF911F91FF90EF90089540910B0139
:102F900050E04530510510F044E050E060910C01E4
:102FA00070910D016F5D7C4FCE0101960E94B72F8D
:102FB00082E293E00E94C3069D818913CDCF0E94D7
:102FC00062086093190370931A0380931B03909314
:102FD0001C0389819A81AB81BC81809315039093F6
:102FE0001603A0931703B093180311E0B6CF809196
:102FF000220390912303A0912403B0912503898398
:103000009A83AB83BC831111E4CFA7CF1F93CF93D7
:10301000DF93182FEB010E942F10209739F4812F96
:103020000E940510DF91CF911F9108958FE99FE0D5
:103030000197F1F700C000002197EFCF1F920F9288
:103040000FB60F9211242F933F934F935F936F937B
:103050007F938F939F93AF93BF93CF93DF93EF9320
:10306000FF93D091E900DF708091EC00C82FC17010
:1030700080FDC0E81092E9008091F000877F809386
:10308000F00078940E94C4111092E9008091F00041
:1030900088608093F000CD2BCF70C093E900FF9142
:1030A000EF91DF91CF91BF91AF919F918F917F91E0
:1030B0006F915F914F913F912F910F900FBE0F90A5
:1030C0001F9018951F920F920FB60F9211242F93F5
:1030D0003F934F935F936F937F938F939F93AF93A0
:1030E000BF93EF93FF938091E10082FF09C080912D
:1030F000E20082FF05C08091E1008B7F8093E100B8
:103100008091DA0080FF24C08091D80080FF20C029
:103110008091DA008E7F8093DA008091D90080FF61
:10312000AAC080E189BD82E189BD09B400FEFDCF5E
:1031300081E08093B1068091A606811109C00E94AA
:10314000DA060E947B078091E20084608093E200AF
:103150008091E10080FF1AC08091E20080FF16C0DC
:103160008091E2008E7F8093E2008091E200806196
:103170008093E2008091D80080628093D80019BCCF
:1031800085E08093B10683E080934D018091E1005A
:1031900084FF30C08091E20084FF2CC080E189BDB3
:1031A00082E189BD99B5892F817090FFFBCF909105
:1031B000D8009F7D9093D8009091E1009F7E9093DE
:1031C000E1009091E2009F7E9093E2009091E200F6
:1031D00091609093E2009091B206992309F451C056
:1031E00094E09093B1069091B106943009F482E096
:1031F00080934D018091E10083FF2CC08091E2001B
:1032000083FF28C08091E100877F8093E10082E006
:103210008093B1061092B2068091E1008E7F809378
:10322000E1008091E2008E7F8093E2008091E200D5
:1032300080618093E20042E060E080E00E94490704
:103240008091F00088608093F00081E080934D01D0
:1032500080934C01FF91EF91BF91AF919F918F911E
:103260007F916F915F914F913F912F910F900FBE82
:103270000F901F90189519BC1092B1061092A606D7
:1032800067CF9091E30097FD02C0982FAACF93E0FB
:10329000A8CF78941F921FB61F9211248F939F93EB
:1032A000AF93BF938091A2069091A306A091A4062C
:1032B000B091A5060196A11DB11D8093A206909321
:1032C000A306A093A406B093A506BF91AF919F91CA
:1032D0008F911F901FBE1F9018959C014FB7F894B7
:1032E0008091A2069091A306A091A406B091A50694
:1032F0004FBF821B930B08952FB7F8948091A206BD
:103300009091A306A091A406B091A5062FBF0895A1
:103310000F931F93CF93DF93C62FD42F022FFC015F
:1033200085818823A9F06093F7060E947C19909309
:10333000F6068093F506C77081E001C0880FCA9534
:10334000EAF70E94FB0FDF91CF911F910F91089533
:103350008091F706681334C08091F5069091F606C7
:103360000E946D19883C910558F510E21D0FCD178C
:10337000B9F080E28C0F883040F4C77081E001C062
:10338000880FCA95EAF70E94F40F183048F481E0DC
:103390009D2F977001C0880F9A95EAF70E94FB0F46
:1033A00070E060E0802F0E940618183060F6D77039
:1033B00081E001C0880FDA95EAF70E94F40FC3CFCD
:1033C000C77081E001C0880FCA95EAF7F6CFA8E080
:1033D000B0E0EDEEF9E10C94DC2E8C01DC011496EA
:1033E0008C911497882309F4EAC021E04C9111963E
:1033F0005C91119712966C91129713967C9113978A
:1034000015969C910E947D0F7C01F801858188238F
:1034100009F4FCC597013A95C70199272115FFE4E6
:103420003F0740F090E080E04FEFE416F10409F030
:1034300008F4C701AC01445051094432510518F059
:103440008B970E9780F4E0916303F0E0EE0FFF1F7F
:10345000E859FC4F808191818F3FAFE79A0719F0BF
:10346000019691838083C70197578038910508F0B2
:1034700091C5BFE0BE1508F492C08FEF93E00E94A3
:103480006F3281118CC068EAA62EBB24B394E11080
:1034900050C0FE01339686E0DF011D928A95E9F760
:1034A0005AE0452E7501BFEFEB1AFB0AC5010E94D9
:1034B0006F3289831A82882309F471C0813009F040
:1034C00082C06501E2E0CE0ED11CC7010E946F32BE
:1034D0008A83882309F463C09FEF980F9330B8F56F
:1034E000F3E0AF0EB11CC6010E946F328B838823BC
:1034F00009F455C01C82CE0101967C01D7012C91A4
:10350000222381F2213009F0A0C011969C911197DD
:1035100012968C91913009F058C0B2E0EB0EF11C7C
:1035200070E060E0893311F460E570E00E940618F5
:1035300053C0A114E4E0BE0691F1C5010E946F32B0
:10354000811101C0EA94FFEFAF1ABF0AA0CF560164
:10355000843089F642E0E42EF12C56012FEFA21AB6
:10356000B20AC6010E946F32E1E0F0E0EC0FFD1FED
:10357000EE0DFF1D8083882391F08C3741F4E2E04B
:10358000F0E0EC0FFD1FEE0DFF1D1082B4CF3FEFFA
:10359000E31AF30A650147E0E416F104F1F68091BD
:1035A000DD02877061F0D80115968C91882339F07F
:1035B0008091A00682FF03C082E00E94440D2896FD
:1035C000E0E10C94F82E570196CF923049F4E2E0F6
:1035D000EE0EF11C0E942F108FEFE81AF80A8ECF22
:1035E000933031F4F2E0EF0EF11C0E940510F4CF9D
:1035F000943021F02FEFE21AF20AEECF32E0E30E20
:10360000F11C30E020E0B7016F5F7F4FD7011196CA
:103610004C918053990B8A30910560F0211531054A
:10362000D9F2EFE9FFE03197F1F700C00000215037
:103630003109F4CF429EF001439EF00D11249C010C
:103640002E0F3F1F842F7B01DECFE22FF0E0E155EC
:10365000FE4F5490822F86958695869590E0FC01CA
:10366000E156FE4F64902770712C022E02C07594B3
:1036700067940A94E2F7F1E06F227724FC01E157A6
:10368000FE4F8490912C022E02C0959487940A9448
:10369000E2F731E083229924FC01E158FE4FC49007
:1036A000D12C02C0D594C7942A95E2F741E0C422F8
:1036B000DD246114710419F081EE0E942F10811431
:1036C000910419F086EE0E942F1070E060E0852DC5
:1036D0000E9406188114910419F086EE0E940510CC
:1036E0006114710419F081EE0E940510C114D10417
:1036F00009F472CF70E060E08CE218CFD801169622
:103700008C91807F09F470C4F70165C421153F4195
:10371000D8F3C701805A9245809708F465C4F70131
:103720005BC426E241EE61EEC8010E94881937CFE2
:1037300027E245EE65EEF8CF26E241EE60EEF4CFEB
:1037400027E245EE64EEF0CF26E241EE62EEECCFEA
:1037500027E245EE66EEE8CF28E241E0EBCFD80164
:1037600015969C91992309F407C41092F7069701C6
:1037700030572332310508F0E9C384E090E00E941D
:1037800077329093A00680939F06F701E150F047AF
:10379000E232F10520F4E354FD4C0C94722F809139
:1037A0009F06816080939F0695C08091A0068860E7
:1037B0008093A0068FC080919F068260F3CF809196
:1037C0009F068460EFCF80919F068860EBCF809149
:1037D000A0068160EDCF8091A0068260E9CF809144
:1037E0009F068061DFCF80919F068062DBCF809152
:1037F0009F068064D7CF0E94A21180919F068068A7
:10380000D1CF80919F068C60CDCF8091A006836040
:10381000CFCF80919F068E7FC5CF8091A006877FF6
:10382000C7CF80919F068D7FBDCF80919F068B7FF4
:10383000B9CF80919F06877FB5CF8091A0068E7FFC
:10384000B7CF8091A0068D7FB3CF80919F068F7EEA
:10385000A9CF80919F068F7DA5CF80919F068F7BFA
:10386000A1CF0E94A21180919F068F779BCF80915C
:103870009F06837F97CF8091A0068C7F99CF809100
:103880009F0682FB992790F921E0922790FB82F90D
:1038900090FB83F987CF8091A006982F9095917027
:1038A0008E7F892B90FB81F983CF90919F06892F82
:1038B0008F7B96FF806476CF0E94A21190919F0625
:1038C000892F97FB87F980586DCF61E08EE090E0FB
:1038D0000E948D3260919F067091A00684E090E076
:1038E0000E94AB320E94A2115ACE60E0EFCF9091BD
:1038F0009F06892F8F7E94FF806154CF90919F0601
:10390000892F8E7F90FF81604DCF9091A006892FE7
:10391000877F93FF88604CCF85E329C385E337C356
:1039200081E00E94ED093BCE882321F10E94C40969
:1039300036CE882321F10E949F0931CE882321F1C0
:103940000E9483092CCE882321F10E94670927CE8B
:10395000882321F10E94380922CE0E94E00980913B
:10396000DB0381608093DB031ACE0E94D409F7CF7A
:103970008823E1F20E94CF0912CE8823E1F20E944F
:10398000AA090DCE8823E1F20E94910908CE88236E
:10399000E1F20E94750903CE8823E1F20E944609F4
:1039A000FECDB7E7EB16BCE7FB0649F1E8E7EE16FC
:1039B000ECE7FE0641F19701205E324520323105E9
:1039C00020F5911137C0EE2DEF7181E090E07C0180
:1039D00002C0EE0CFF1CEA95E2F76E2D83E090E04A
:1039E0000E948D328E2D0E94670DD9CD81E00E94FC
:1039F0005B0D43E062E081E00E94170DD0CD81E0D5
:103A00000E94370DF6CF82E0FBCF992399F0F3E0C7
:103A1000EF16FCE7FF0609F480C008F05FC0E11470
:103A20003CE7F30609F46CC041E0E4164CE7F40609
:103A300009F479C0F8018581E080F180882309F4D8
:103A400080C0C7010E941E0FD82E682FC7010E9498
:103A5000DD0CB7018D2D0E94100F0E94530B7C01CD
:103A6000882ED8011596AC90159716969C90929436
:103A70003FE093228091DD02877009F1CA2CAA20D1
:103A8000F9F08F2D807F803469F080E28E0D8830D0
:103A9000B0F08F2D807E803229F4B1E0BE1578F42D
:103AA000992069F08091A00682FF09C082E00E94FF
:103AB000440D8091DD028770CC24C3948111C12C08
:103AC000BF2CB2942FE0B222EBE0EB1508F4A1C0BA
:103AD000EB2DF0E0E152FD4C0C94722F8BE5E816D3
:103AE0008CE7F80661F19CE5E9169CE7F906E9F038
:103AF000AAE5EA16ACE7FA0609F09CCF81E01CC003
:103B00000E94A211BFEFE4E3FCE0B150E040F040BE
:103B1000E1F700C000000E9435086FEF7FEF90E0F2
:103B200080E00E94AB320E948E148091A00682FB3E
:103B3000882780F991E089270E9460167BCF80E07A
:103B4000FBCFC7010E94A90CD82E83CFFF2DFF7099
:103B5000DF2E8F2D807F19F0D29490EFD922AA20EA
:103B6000B9F0DD2069F080E28E0D883010F0811010
:103B700009C080910803D82AD09208030E94A20F9E
:103B80008E2D45C08091DF02D82AD092DF02F6CF79
:103B90008E2D0E940510DD20E1F180E28E0D88302F
:103BA00010F0811004C08D2D0E94710C06C0D094BD
:103BB0008091DF02D822D092DF020E94A20F29C09A
:103BC0002F2D2F70D22E8F2D807F803219F0D2941E
:103BD00080EFD822882059F031E0831609F479C0AB
:103BE000AA2009F485C0992009F447C0C9CF809163
:103BF000A00682FD3EC0AA20B1F1DD2039F08091FF
:103C00000803D82AD09208030E94A20F80E00E94E5
:103C10002F10EB2DE850FF0B349710F40E941A0977
:103C2000CC20B1F08091DD0280FD12C0D801159644
:103C30001C928695869586950E945B0DC8010E9410
:103C4000E7198091DD028695869586950E94370D4D
:103C500020E0F801408151816281738184819581E6
:103C60000E947D0FACCC80E00E940510DD2089F21F
:103C70009ACFAA20A1F0911004C08D2D0E94FB0FB5
:103C8000C8CF41E09412C5CF8091DE029D2D9823CC
:103C9000D91609F4BECFD82AD092DE02BACF91103D
:103CA000B8CF8D2D0E94F40F9091DE028D2D8923C7
:103CB00029F08D2D809589238093DE028091C302A7
:103CC0009D2D982309F4A5CFD094D822D092C30279
:103CD000A0CFAA2029F085E0891508F49ACFCDCF8E
:103CE00094E0991508F495CF8D2D0E94F40F91CF93
:103CF0009920D1F3A9E38A1209C0BFEFE7EEF3E000
:103D0000B150E040F040E1F700C000008E2D0E946D
:103D100005107FCF8F2D86958695837061F0813059
:103D200009F077CFC7019370A11002C080E090E046
:103D30000E94D0086ECFC7019370A11002C080E02E
:103D400090E00E94F50865CF8F2D837091F5A1104A
:103D500060CF4E2D429546954770440F440F8E2DEF
:103D60008F70042E01C0880F0A94EAF72E2D20715F
:103D7000E4FE07C02FE030E001C0220F4A95EAF7C9
:103D800020953F2D369536953370323069F050F4DA
:103D900040915303313029F0822B84230E94670D18
:103DA00038CF842B822BFACF282B80915303822784
:103DB000F5CF8695AA2011F08F2D8170882309F404
:103DC00028CF4E2D429546954770440F440F8E2DB7
:103DD0008F70042E01C0880F0A94EAF72E2D2071EF
:103DE000E4FE07C02FE030E001C0220F4A95EAF759
:103DF00020953F2D369536953370323069F050F46A
:103E00004091A103313029F0822B84230E94140DAC
:103E100000CF842B822BFACF282B8091A1038227FD
:103E2000F5CF2F2D2F70F22EAA2029F0822F0E947D
:103E30005B0D8E2D23CF8E2D0E94F40F8F2D0E94AF
:103E4000370DE7CE8E2D32EF8316B1F1381570F0B5
:103E500040EF8416D1F091EF891691F0AA2009F471
:103E600057C091108DCE8F2D8F712AC0A3EF8A1667
:103E700051F1B4EF8B12F2CF9091A00692FD2FC0BA
:103E80008F2D8F71AA20D9F21BC0AA2081F0E4E007
:103E9000E91508F4BECE2F2D2F7181E090E001C00E
:103EA000880F2A95EAF79091A1038927AFCFF5E013
:103EB000F91508F4AECEEFCF8F2D8F71A110BFCFC3
:103EC0000E945B0DA6CE80E0AA2009F49FCF9F2D13
:103ED0009F7181E001C0880F9A95EAF797CFAA20D9
:103EE00061F08F2D8F7192FFEBCF48E0849F90019E
:103EF000112423602093DD02E3CF81E00E94440D72
:103F000081E0891508F085CE82E00E94440D81CEC3
:103F1000992059F0893309F0F9CE9FEFA7EEB3E06D
:103F20009150A040B040E1F7EFCE8F2D8F7187CF39
:103F3000F7E7EF16FCE7FF0609F458CD28E7E2168D
:103F40002CE7F20609F037CD82E051CD80910803CD
:103F500036E1E3163CE7F30609F071C08A7A91E096
:103F600009F490E09093C2028111D6CC89E20E94BC
:103F70009C080E94A20F13CB46E1E4164CE7F4061E
:103F800009F04FC08091C2028111C8CC89E20E9421
:103F90007108EFCFD80111968C9111978093A503EA
:103FA0008C918093A40380E280933C01F092A30360
:103FB000E092A203C70190528115904208F49ECB73
:103FC000C70190548115904108F0A0CBF80186817B
:103FD000807FF70109F0FF27ED33F10528F4E15D5B
:103FE000FD4FE491E0933C01F0929C03E0929B032F
:103FF00080919706882351F00E94620860939D0388
:1040000070939E0380939F039093A003F701E85160
:10401000FC47E730F10508F0A2CBE551FD4C0C94CC
:10402000722F809108038272F701E054F847ED3057
:10403000F10508F0B6CCEE50FD4C0C94722F827254
:10404000F701E052F847EB30F10508F071CFE1508D
:10405000FD4C0C94722FCF93DF938091DC02807F14
:1040600009F04DC08091DB02882309F448C0E0913B
:10407000F4065091BB06C091D702D091D602609150
:10408000D8027091D90247E05E17C9F18E2F90E0F7
:10409000E49FF0011124E454F94F2481222391F18B
:1040A000489FF001499FF00D1124DF01A454B94F3E
:1040B00011962C9111972C1325C02C912D1322C0F1
:1040C00015962C91159721111DC012962D913C919A
:1040D000261B370B283C3105A8F48091DC028F7039
:1040E00080618093DC02EE53F94F80818F70806194
:1040F000808386ED92E00E94E7190E949F0CDF9179
:10410000CF910895FC013196E770BECFA4E1B0E0F5
:10411000ECE8F0E20C94E02E8C0186E0F801DE0180
:104120001F9601900D928A95E1F7F8018481E58050
:1041300096EDA92E92E0B92E9091DA02911128C045
:10414000882319F1EE20F1F0C8010E945A0FF82ED1
:104150008823C1F087E0F801D50101900D928A957E
:10416000E1F78091DA02813031F48091D6029091AA
:10417000D7020E944D0F0E942B208F2D6496ECE0F9
:104180000C94FC2EC8010E94E719FF24F394F5CF8C
:10419000D080C18082809380F090DB022091D80291
:1041A0003091D902A401421B530BFF2009F4D9C05E
:1041B000483C510508F092C08823F9F29091D7024B
:1041C0008091DC02282F207F09F056C0C91214C04C
:1041D0009091D602D91210C0E11048C08F70806152
:1041E0008093DC0286ED92E00E94E7198091DC0268
:1041F000F8018683F12CC1CFE11038C06C2D8D2DD4
:104200000E94A4066C2D8D2D0E94A406E82E81111B
:10421000F1CFDF86C88A8F8598890E944D0F292F9C
:1042200022952F70243058F49F70223088F0992303
:1042300099F0F8019681907F79F4FE2C9ECF2A5F49
:104240002F70223068F0C8010E94E719EF2CF5CFDB
:10425000992311F0882389F3805E883070F3F3CFBF
:10426000803F58F3815F833070F7E7CF8091DC02A5
:1042700081608093DC02BECFC91207C09091D60244
:10428000D91203C0EE2009F48DC0C8010E945A0F54
:10429000882309F477CFEE2009F474CF8091DC02F3
:1042A000803288F02091D6023091D7023987288752
:1042B0009B868A869091DA029C871D868E87CE0126
:1042C00008960E94E71987E0F801A6EDB2E0019098
:1042D0000D928A95E1F70E942B2057CF9091DC0236
:1042E000292F207F51F486ED92E00E94E71987E0A4
:1042F000F50111928A95E9F77DCF882309F43DCF26
:104300008091D7028C1110C08091D602D8120CC0B7
:10431000E1100AC09683C8010E94E71987E0F50101
:1043200011928A95E9F729CFC8010E945A0F882374
:1043300009F428CFEE2009F425CF8091DC028032E9
:1043400010F22091D6023091D7023A8329839C82C1
:104350008B829091DA029D831E828F83CE0101961B
:10436000B0CF483C5105D0F6882309F40ECFFE2C7F
:10437000EE2009F407CF8091D7028C1120C08091E4
:10438000D602D8121CC08091DC0280FD0FC0982F8D
:10439000907F61F08683903F31F0982F907F905FFF
:1043A0008F70892B8683C8010E94E71987E0F80186
:1043B000A6EDB2E001900D928A95E1F7DECEC8013C
:1043C0000E945A0F81117FCF8091DC02816080931F
:1043D000DC02C8010E94E719D0CEABE1B0E0E3EF08
:1043E000F1E20C94E82E4E8B5F8B688F798F8A8F69
:1043F0009B8F192F91111092DF021D8A86E0FE011A
:104400007696DE011F9601900D928A95E1F70A8D4E
:10441000002341F021E04F85588969897A89C801D4
:104420000E947D0F0B8B1C8B87E0FE013F96DE0107
:10443000189601900D928A95E1F7CE0108960E9498
:10444000862081110CC087E0FE013896DE011196AE
:1044500001900D928A95E1F78C8581110BC017E0D0
:104460008091F4069091BB06891331C06B96E4E00D
:104470000C94042F2091BB0630E0C901019687708F
:1044800099274091F4064817190699F097E0929FF2
:10449000D001939FB00D1124A454B94FFE01319661
:1044A00001900D929A95E1F78093BB060E949F0CB4
:1044B000D6CF0E94A2111092BB061092F40687E09C
:1044C000E6EDF2E0DF011D928A95E9F7C8CF819F02
:1044D000C00111248454994F0E948620882331F210
:1044E0008091F40690E00196877099278093F406F6
:1044F000B7CFACE0B0E0EFE7F2E20C94DF2E8E0134
:104500000F5F1F4F88E0D8011D928A95E9F784EA72
:10451000C82E81E0D82EF12CE12CAA24A394B12C32
:104520002EEA822E21E0922EF60181916F018F3FBB
:1045300009F442C0F894E82FE295EF70F0E021A171
:104540008F70A50102C0440F551F8A95E2F7CA017A
:10455000922F982B91A392A18095892382A378947E
:1045600000C0E8EAF1E0712C31E021912F3F09F41D
:10457000AEC0A22FA295AF70B0E090968C9190E063
:104580002F7002C0959587952A95E2F780FD9FC010
:10459000832F782A330F8E169F0639F7F60131974D
:1045A00080818F3F11F00E94310A50EA5A95F1F74D
:1045B000F801EE0DFF1D70828FEFE81AF80A94E003
:1045C000E916F10409F0B0CF48E050E0B80189E401
:1045D00093E00E94AA2F009741F028E0F801A9E497
:1045E000B3E001900D922A95E1F70091520310E09B
:1045F00005531C4F892B09F46CC081E080930D0397
:104600000E947C1990930C0380930B03F12CE09093
:104610009706EE2009F4B7C019861A861B861C86F9
:10462000809144038A3008F078C04AE657E1BE0121
:10463000675F7F4FC8010E94FE0D882309F492C076
:1046400045E057E1BE01675F7F4FC8010E94FE0D44
:10465000882309F487C041E257E1BE01675F7F4FBD
:10466000C8010E94FE0D882309F47CC04BED56E181
:10467000BE01675F7F4FC8010E94FE0D882309F4C9
:1046800071C04CEB56E1BE01675F7F4FC8010E94CD
:10469000FE0D882309F466C01092440380915103F3
:1046A00090E044E050E0BE01675F7F4F85539C4F30
:1046B0000E94AA2F21E020931403892B09F044C003
:1046C000E12C8E2D8F292C96EDE00C94FB2E80E0B2
:1046D00060CFF0900D03FF2009F498CF80910B0379
:1046E00090910C030E946D19059708F48FCF44E058
:1046F00050E069E473E0C8010E94AA2F892B59F0A9
:1047000084E0E9E4F3E0D80101900D928A95E1F7A5
:1047100010920D037CCFF12CFBCF80910E03909172
:104720000F030E946D19843F914008F07ECF809165
:104730001403882329F2FE01399684E0DF011D92DB
:104740008A95E9F710921403E0915103F0E0E553E4
:10475000FC4F89859A85AB85BC8580839183A28334
:10476000B383AFCF809144038F3F31F08F5F80934D
:1047700044038A3008F492CF0E947C1990930F036F
:1047800080930E03D4CFC0905103D12CF601E55392
:10479000FC4F6F0184E0F801A2E2B3E001900D92BA
:1047A0008A95E1F782E293E00E94C3068093210399
:1047B00084E0E6E2F3E0D60101900D928A95E1F7FC
:1047C00080902A0390902B03A0902C03B0902D038F
:1047D0008091100390911103A0911203B0911303E3
:1047E00088169906AA06BB06B1F080921003909233
:1047F0001103A0921203B09213030E946208861A5A
:10480000970AA80AB90A8092450390924603A0929B
:104810004703B092480388E0EEE2F3E0ACEDB3E08A
:1048200001900D928A95E1F780913703882319F062
:104830000E94CC1446CF0E94B11443CFA6E0B0E052
:10484000E4E2F4E20C94E82E0E947C198C01809141
:10485000090390910A038017910781F019821A8247
:104860000E947C19682F49815A81792F80E090E05D
:104870000E94ED2110930A03009309032696E4E0B9
:104880000C94042F1F921FB61F9211248F939F9395
:10489000AF93BF938091A106811113C08091A206AE
:1048A0009091A306A091A406B091A5064196A11DE2
:1048B000B11D8093A2069093A306A093A406B09383
:1048C000A506BF91AF919F918F911F901FBE1F9022
:1048D0001895CDB7DEB7E3970FB6F894DEBF0FBEDD
:1048E000CDBF85B7806885BF85B7806885BF84B731
:1048F000877F84BF0FB6F894A89580916000886187
:1049000080936000109260000FBE80E890E00FB6C8
:10491000F89480936100909361000FBE81E08093D2
:104920004D018FE29AE090939902809398020E9441
:10493000DA060E947B078091E20084608093E200A7
:1049400078948091B1068823A1F01091E9001F703E
:104950009091EC00892F817090FD80E8182B1092C7
:10496000E9008091E80083FD0E94C4111F7010933C
:10497000E90082E084BD93E095BD9AEF97BD8093F6
:104980006E00109245031092460310924703109256
:1049900048030E94C80E811102C00E94B80E88EC24
:1049A00090E01091E300111F1127111F61F4AFE394
:1049B000BCE91197F1F700C00000019791F70E9440
:1049C000DA061092B106109397061093980610938A
:1049D000300111110E94642D8091300180913001CD
:1049E00094E0811190E09093520384E0891B8093BE
:1049F000510384E90E94310A86E60E94310A87E960
:104A00000E94310A86EC0E94310A08EA11E03EEA6F
:104A1000E32E31E0F32EF80181918F018F3F11F0E9
:104A20000E94310AE016F106B1F788E0EBECF3E002
:104A3000DF01282F1D922A95E9F7E9E4F3E0DF0171
:104A40001D928A95E9F790E080E00E947732853EDA
:104A50009E4F21F40E94C80E811163C065EE7EEF67
:104A600090E080E00E94AB3260E082E090E00E9443
:104A70008D3281E08093530361E083E090E00E94F7
:104A80008D3260E074E184E090E00E94AB3260E03F
:104A900086E090E00E948D3260E087E090E00E9426
:104AA0008D3240E050E0BA0188E090E00E949F32F1
:104AB00060E083E290E00E948D3260E08CE090E064
:104AC0000E948D3260E08DE090E00E948D3219826C
:104AD0001A821B821C821D821E821F82188648E059
:104AE00050E067E170E0CE0101960E947D3240E027
:104AF00050E0BA018FE190E00E949F3280E00E9476
:104B0000310E0E94B80E40E050E0BA018FE090E014
:104B10000E949F3240E050E0BA0183E190E00E94A1
:104B20009F3282E090E00E946F328093540384E0D1
:104B300090E00E9477329093A00680939F060E9497
:104B40007922EFEFF6E721E0E150F0402040E1F775
:104B500000C000000E94792280919806E4E0811153
:104B6000E0E0F0E0E553FC4F808181FF08C06FEF8B
:104B70007FEF90E080E00E94AB320E94350883E036
:104B800090E00E946F320E94670D0E94360981E01A
:104B90008093DB0348E050E067E170E08CED93E048
:104BA0000E945F321092DB038091DC038C7FB9F4AA
:104BB00085E08093DC0380914E0190914F01A0919C
:104BC00050018093DD039093DE03A093DF038FE712
:104BD0008093E0038FEF8093E1030E94F4148091AF
:104BE00097068111A8C582E08093C603823009F040
:104BF000A2C080E88093E4030E94022C6BE070E086
:104C000082E892E00E94A414882359F18091C6039F
:104C100065E070E081FD91C08DE792E00E94A414F0
:104C20008823F9F06DE070E08BE692E00E94A41416
:104C30008823B9F00E946208605A75418F4F9F4FD8
:104C40006093EF057093F0058093F1059093F20562
:104C50000E948D1181E08093F4058093F3051092FA
:104C6000C70380919706811102C00E94672D81E3DE
:104C700091E090939C0680939B0624E6822E912CD3
:104C8000A12CB12CCE0101963C018091B10610E41B
:104C900000E192E1F92E853009F489C00E94792261
:104CA00005E513E08BECE82E83E0F82ED701F80140
:104CB00091918D9133E0ED35F30709F482C0981797
:104CC000B9F320909706D12CD701CD907D01F80142
:104CD00031908F013C1431F13C24512C44244394F5
:104CE000832D8421B9F02220A9F059A6DAA60E94CA
:104CF0007C199CA78BA7F1E0FDA791E08C2D842166
:104D000009F490E09EA749A55AA56BA57CA58DA5A1
:104D10000E94ED215394440C26E05212E1CFF80199
:104D20003197C082D39438E0D312CECF0E94480A84
:104D300041E04FA74BC080E25DCF88E792E06ECFA5
:104D40008091B106843039F10E94FF140E94B114A1
:104D50001092A106A8E1B0E00FB6F894A895A09330
:104D600060000FBE1093600083B7817F846083BFB3
:104D700083B7816083BF7894889583B78E7F83BF24
:104D80000FB6F894A89580916000886180936000C8
:104D9000109260000FBE0E947922EBECF3E081914B
:104DA0008111AEC423ED33E02E173F07C1F7809188
:104DB000B106853009F4C4CF0E94A2110E941A09DD
:104DC0006DCF98137ECF0E941E241FA68091970658
:104DD000882309F4AEC02090680330906903032C47
:104DE000000C4408550810913B01212F30E0E8E603
:104DF000F3E081E090E03296281739070CF023C1E8
:104E000060916403709165038091660390916703DC
:104E10000E9446086B017C0189ECC816D104E104AC
:104E2000F10414F18091630390E0019669E170E070
:104E30000E941D2F80936303880F991FFC01E8597E
:104E4000FC4F11821082812F183108F087E18F5FAB
:104E500080933B010E946208609364037093650332
:104E6000809366039093670392E02916310441040E
:104E700051040CF4F4C0A0E6BAEEA20191010E9424
:104E80007F2F1B012C01A8EC1A9F90011124032EE7
:104E9000000C440B550B2C0D3D1D4E1D5F1DA5E058
:104EA000B0E00E947F2F9B01AC01C201B1010E94C2
:104EB000312F19012A01B1EF2B163104410451049D
:104EC0002CF0B0EF2B2E312C412C512C60915F0334
:104ED0007091600380916103909162030E94460883
:104EE0006B017C01E5E6CE16D104E104F10484F007
:104EF0000E94620860935F03709360038093610374
:104F00009093620380919A0380935E0320925D03E5
:104F100010915E03A0915D03A11BBB0BA70196013D
:104F20000E948A2FA50194010E94532F120F109303
:104F30009A030E94FF148091F405882309F44BC062
:104F40008091C8039091C9030E946D19C29718F10E
:104F50000E947C199093C9038093C80387EE93E065
:104F60009093EE058093ED0580919706882309F4D0
:104F700024C160919D0370919E0380919F03909145
:104F8000A0030E944608613375478105910508F426
:104F90006AC00E94B1148091E5039091E603892BC9
:104FA00009F04AC18091F3058823A9F00E946208A4
:104FB0000091EF051091F0052091F1053091F20577
:104FC000601B710B820B930B6F3F7F4F8F4F9F477F
:104FD00010F40E94B1144FA541110E94CC140E94FC
:104FE0001A099091CA03891721F08093CA030E947D
:104FF00062088091B106843009F047CE83E0809347
:10500000E9008091E80082FF40CE8091E80090E0C6
:1050100085FF06C00E94F906882309F4E8C191E0E3
:105020008091E8008B778093E800992309F42DCED6
:105030008981EFEFE80FE33108F002C2F0E0E65FAC
:10504000FC4C0C94722F40815181052E000C660B94
:10505000770B240E351E461E571E0196CCCE212CF2
:10506000312C210133CF8091F30581110CC00E94B6
:10507000CC140E94620860939D0370939E038093FA
:105080009F039093A0030E948D1187EE93E090936D
:10509000EE058093ED0561E081E591E00E94391114
:1050A00061E08FEA92E00E94871160E087E591E07D
:1050B0000E94391160E08EEA92E00E94871180918F
:1050C000A1030E946A0D813009F46BC0882351F05E
:1050D000823009F46AC0833009F46BC060E089E96A
:1050E00092E003C060E089EA92E00E94871160E0EC
:1050F00088E992E00E94871160E084E992E00E94D2
:10510000871180919C038F9380919B038F938DE5F2
:1051100091E09F938F931F9280E18F937F926F9284
:105120000E94C02F60E0C3010E94391181E00E94FB
:10513000541160E083E992E00E94871160E087E506
:1051400091E00E94391160E082E992E00E948711AB
:1051500060E08EE892E00E94871160E08DE892E0C6
:105160000E94871180919A031F928F9382E691E0AB
:105170009F938F931F9288E08F938E010F5D1F4F37
:105180001F930F930E94C02F60E0C8010E94391145
:1051900081E00E9454110FB6F894DEBF0FBECDBF60
:1051A000FACE60E085EA92E0A0CF60E081EA92E08A
:1051B0009CCF60E08DE992E098CF0E948D118091A4
:1051C000ED059091EE05875E93409C013E5F213096
:1051D0003240A0F020E032E0281B390B4091E5037B
:1051E0005091E603E5EBF2E0280F391F8217930791
:1051F00040F05093E6034093E503CDCE20E032E04B
:10520000EDCF6491DC01A951BC4F7C91671789F007
:105210006C93BC01A5E076956795AA95E1F7A1E0AE
:10522000B0E002C0AA0FBB1F6A95E2F7BD014A2B8E
:10523000572B01963196DACF8091F405882309F433
:10524000B1CE8091C7038111ADCE0E94CC142091C4
:10525000E5033091E6032115310509F4A3CE80E082
:10526000482E512C22242394312C082E02C0220CCB
:10527000331C0A94E2F7A90142215321452B11F472
:105280008F5FEECF9091C60390FF97C0880F880F75
:10529000880F80933F0110924201895F8093400103
:1052A00083E08093430124E630E047E050E06DE383
:1052B00071E088E70E94362C892B09F073CE95E0C7
:1052C000440C551C9A95E1F78091C60380FF87C076
:1052D000E6EAF3E080E2DF011D928A95E9F7E2EB6E
:1052E000F1E0FBABEAAB4EEA51E007E0AAA9BBA9AB
:1052F0006D91BBABAAABFA018191AF01840D952DE5
:10530000911D9C0129513C4F39AB28ABE62FF0E0B1
:10531000EA55FC4F90E080E0F02EF81A11E0082EDC
:1053200001C0110F0A94EAF7C8A8D9A870E0D60105
:105330006D916D0161232F2D271B2770E22E022E08
:10534000000C330BB62F01C0BB0FEA94EAF7EB2E2B
:105350003195219531092770332701C066952A952B
:10536000EAF7E62A6081E62AE0827F5F7830F9F684
:10537000019631968830910579F6EAA9FBA9E65B9A
:10538000F14009F0B3CF04E610E020E230E046EA55
:1053900053E060E488E70E94C02C892B09F002CE1C
:1053A000209430948091E5039091E60328223922DD
:1053B0003092E6032092E503F5CD8295880F807642
:1053C00080933F0192013695279536952795209336
:1053D0004201815E809340012093430164CFA2018A
:1053E00049515C4F04E610E020E230E0D2CF80E289
:1053F000E82EF12C8E010F5F1F4F8091E80085FD94
:105400000AC08091E8008B778093E8000E94F9063B
:10541000882399F304CE8091F100D8018D938D01FA
:10542000B1E0EB1AF10849F7FACD1A828CE08B83D0
:105430001BC08A81823009F48AC128F4813061F06E
:105440008FEF898311C08330B1F08430C9F71B829C
:105450001C821D821E8208C00E9462080E94782F52
:105460006B837C838D839E8340E250E0B30182E0B6
:105470000E947B0D0ACC2B81822F90E0FE01349696
:10548000245E8830910580F7DC01A553BC4F3C9128
:10549000319301962813F5CFE7CF8A81823031F01E
:1054A000853071F680E00E94ED09DECF6B817C8152
:1054B0008D819E810E94782F87E290E00E948D323C
:1054C000D3CF4C816B818A810E94E10E9827892776
:1054D00098279E838D83C8CF2D813E813227232735
:1054E00032274C816B818A810E945A0EBDCF0E9467
:1054F000800EBACF9A81933009F0A2CF8830A1F103
:10550000893009F45EC08B818230E9F088F4813003
:1055100009F0AACF4C8128E7429F412D11248091A8
:10552000DD0320E06091DE0390E00E9454099CCFEF
:105530008330B1F0843009F097CF8C8120E0409126
:10554000DF036D81F1CF8C81811103C00E94D409EA
:105550008BCF0E94E00960E08C810E94B50984CF66
:105560008C818093E00380CF8B818230E1F078F4EE
:10557000813009F079CF8091DF03EFEF8E9FC0017A
:10558000112468E770E00E94C62E6C836DCF8330D3
:10559000A9F0843009F068CF8091DD038C8380917D
:1055A000DE038D8361CF8091DC03982F9370869505
:1055B0008695911101C080E08C8356CF8091E003E5
:1055C000FBCF0E94F41450CF80E18A834DCF82E05C
:1055D0008A8388E52CCFCA80DB80DC24CD24DC24C0
:1055E0008E010F5F1F4FEC80E00EF12EF11CC60103
:1055F00088559E4F0E151F0509F436CFF8E5CF16D6
:10560000F2E0DF0658F40E946F32D80114968C93B2
:10561000FFEFCF1ADF0A0F5F1F4FE9CFF8011482A7
:10562000F7CF0A811B811027012710279E012F5FCA
:105630003F4F6901EC80E00EF12EF11CC801885546
:105640009E4FE016F10609F40FCF083532E013073C
:1056500028F4D60114966C910E948D32BFEFCB1ABC
:10566000DB0A0F5F1F4FEACF0E944A0EFDCE84E097
:10567000ACCFEA80FB80FE24EF24FE248E010F5F76
:105680001F4FCC80C00ED12ED11CC7018896C016EA
:10569000D10609F4E9CEE0E8EE16E1E0FE0658F4A2
:1056A0000E946F32D80114968C93FFEFEF1AFF0A15
:1056B0000F5F1F4FEACFF8011482F7CF0A811B81D9
:1056C0001027012710279E012F5F3F4F6901EC80B3
:1056D000E00EF12EF11CC80188960E151F0509F485
:1056E000C3CE003831E0130728F4D60114966C912C
:1056F0000E948D32BFEFCB1ADB0A0F5F1F4FEBCF3B
:105700008091B006882309F452CB09BDF9BC09B4D5
:1057100000FEFDCF8091D8008F7D8093D8008091CE
:10572000E00082608093E0008091E00081FDFCCF8A
:105730000E94A2113CCB0E94620860939D0370936B
:105740009E0380939F039093A00383E04DCA87E25A
:1057500090E00E946F321B821C821D828E8384CE59
:10576000EF92FF920F931F93CF93DF93182FEB01CC
:105770001092BC0084EA8093BC000E947C197C01DA
:105780008091BC0087FF27C08091B900887F883056
:1057900029F08091B900887F803189F51093BB0092
:1057A00084E88093BC000E947C198C018091BC002D
:1057B00087FF1EC02091B900287F90E080E028314B
:1057C00091F081E090E0203411F490E080E0919538
:1057D0008195910908C0C7010E946D19C817D907A2
:1057E00078F68EEF9FEFCDB7DEB7E6E00C94022F90
:1057F000C8010E946D19C817D907C0F6F2CF8FEF04
:105800009FEFF1CF1092B9008CE08093B80008951B
:105810000F931F93CF93DF93EB018093BB0084E83A
:105820008093BC000E947C198C018091BC0087FF92
:1058300011C02091B900287F81E090E0283211F456
:1058400090E080E0919581959109DF91CF911F9132
:105850000F910895CF3FDC0741F3C8010E946D19F5
:10586000C817D90710F78EEF9FEFEFCFB0E0A0E099
:10587000ECE3FCE20C94DF2E782E5B016A018901D7
:105880000E947C194C01C1E0D0E00431110558F0B0
:10589000C5E0D0E00F3F100731F0C80164E170E0CF
:1058A0000E94C62EEB01BE01872D0E94B02B7C0109
:1058B00097FF09C00F3F1007B1F3C4010E946D1993
:1058C0000817190780F7E501CA0CDB1CCC15DD05AC
:1058D00011F0F7FE09C084E98093BC00C701CDB781
:1058E000DEB7EDE00C94FB2EB80189910E94082CE4
:1058F0007C01ECCFB0E0A0E0E0E8FCE20C94DF2E0D
:10590000782E5B016A0189010E947C194C01C1E07B
:10591000D0E00431110558F0C5E0D0E00F3F10078A
:1059200031F0C80164E170E00E94C62EEB01BE01B7
:10593000872D0E94B02B7C0197FF09C00F3F1007F5
:10594000B1F3C4010E946D190817190780F7E5012A
:10595000CA0CDB1CCC15DD0511F0F7FE09C084E98B
:105960008093BC00C701CDB7DEB7EDE00C94FB2EF1
:10597000FE018491B8010E94082C7C012196EACF97
:10598000B0E0A0E0E6ECFCE20C94DE2E682E762E71
:105990005A0169010E947C194C01C1E0D0E0043138
:1059A000110558F0C5E0D0E00F3F100731F0C801F5
:1059B00064E170E00E94C62EEB01BE01862D0E94BC
:1059C000B02B7C0197FF1DC00F3F1007B1F3C4013E
:1059D0000E946D190817190780F784E98093BC00AD
:1059E000C701CDB7DEB7EEE00C94FA2EB80189916D
:1059F0000E94082C7C01CC16DD0679F3F7FEF6CF69
:105A0000ECCFB801872D0E94082C7C01E501CA0C5F
:105A1000DB1CF1CF8EE14A9B02C08150E1F74A9B2B
:105A2000FECF08955A9880E28A95F1F75A9A089520
:105A3000FC013BE03A95F1F798E020E080E031E0AE
:105A400040E14A95F1F7880F4A9B02C08160232705
:105A500042E04A95F1F7000040E14A95F1F7915094
:105A600079F790E19A95F1F799B132E03A95F1F72B
:105A7000000040E14A95F1F792FB992790F99227AF
:105A80002081920F90830895A1E0B0E0EAE4FDE266
:105A90000C94E62E19828C017C01E60EF11C0E1589
:105AA0001F0541F481E09981911180E02196E6E0A3
:105AB0000C94022F0E940A2DCE0101960E94182DEF
:105AC000F80181938F01EBCF529A5A9A0895529818
:105AD0005A9AEA9AE9E6F0E080818F7C8083089503
